S00D00006D794144432E7372656369
S3150000000000050020392A0000CD280000432A000000
S31500000010432A0000432A0000432A0000432A000026
S31500000020000000000000000000000000432A00005D
S31500000030432A000000000000432A0000432A000073
S31500000040411A000071190000C91A0000151B0000B2
S31500000050FD21000089230000A12400008525000061
S31500000060FFFFFFFF000000004879000000000000CD
S315000000700000000003000000000000001023000044
S31500000080747C00008C000020C80B0020D00B0020E0
S31500000090F80B0020940C0020000000000000000077
S315000000A04001A10000500028C3E30000804000503A
S315000000B0FF38FED4FE70FE0CFDA8FD44FCE00052A5
S315000000C0026700CD03342303A34300000649064A12
S315000000D0064B064C064D064E069706D70657064EA5
S315000000E0064D064C064B064A865900008000000065
S315000000F0400200004400002050020000460000209C
S315000001006002000048000020680400004A00002049
S3150000011097040000000000000000000080000000BE
S31500000120401000004E000020500800005E00002035
S315000001306004000066000020682000006A000020BD
S31100000140972000000000000007000000EF
S3150000015010B540F21C54C2F200042046A82103F058
S31500000160C8FE03202061606147F64D0040F2C4518D
S31500000170C0F20000C2F20001A061E1614FF48061AB
S3150000018021620021A1626162E162206640F6C4102C
S31500000190C2F2000060661020A0662167E166616712
S315000001A047F260710F20C0F20001BFF35F8F00BFFE
S315000001B00A5C0138431C04F8012BF9D1BFF35F8FA9
S315000001C010BDD4D42DE9F04381B0C76814460D465E
S315000001D080464FF0000900BFD8F81010D8F8080084
S315000001E0FA43B9421144A0EB070698BF0144B14255
S315000001F038BF0E46D8F80400A64228BF2646384423
S315000002002946324603F079FED8F80800F119A41BF6
S315000002100F1AB144354418BF0F46002CBFF35F8F49
S31500000220C8F80C70D8D1484601B0BDE8F0832DE976
S31500000230F04381B0144640F21C5200EB4000C2F27B
S31500000240000202EBC002D06A8946022802F11805B4
S3150000025011D0012807D000283ED1EE682869B042A7
S3150000026034D9F14335E0EE682969B1420BD9F2433E
S31500000270A86811440BE028464946224601B0BDE86D
S31500000280F043FFF79FBFA868F24311440144A1421F
S3150000029038BF0C46871B6868BC42304407D24946C3
S315000002A0224603F02AFEBFF35F8F26440CE0494640
S315000002B03A4603F022FEE61B686809EB0701324660
S315000002C003F01BFEBFF35F8FEE6026E0A968F243E2
S315000002D010440844A04201D200241EE0D5E90101E1
S315000002E08F1BBC42304408D24946224603F005FE25
S315000002F0BFF35F8F06EB04080DE049463A4603F06C
S31500000300FCFDA4EB0708686809EB0701424603F009
S31500000310F4FDBFF35F8FC5F80C80204601B0BDE841
S31500000320F083F0B581B0144640F21C52C2F20002CE
S3150000033012780D4606460AB9FFF70AFFEFF3118752
S315000003404FF0200181F31188304629462246FFF7F7
S315000003506EFF87F3118801B0F0BDD4D42DE9F04FBC
S315000003609BB0059206AA16924022179200220027F9
S315000003708A4604901A90CDE9182200BF1AF8012B7C
S31500000380252A07D0002A00F03A8116A8114600F067
S3150000039045F9C6E0881C4FF0000800BF9AF8001027
S315000003A02C2905DC232909D02B2911D1042108E0A9
S315000003B02D2905D030290BD1022102E0082100E0C9
S315000003C0012148EA01080AF1010A0130E6E700BF07
S315000003D0A1F13A02002512F10A0F0ED305EB8502B0
S315000003E001EB420210F8011BA2F13005A1F13A031C
S315000003F013F10B0FF2D8A0F1010A2E290AD15046AB
S3150000040010F8011FA1F13A0212F10A0F04D20024DA
S31500000410824615E0002413E00AF10200002400BF22
S3150000042004EB840201EB420210F8011BA2F1300436
S31500000430A1F13A0313F10B0FF2D8A0F1010A00BFA4
S315000004401AF8010B00F0FB016829F9D063280DDCCE
S3150000045025282BD0582821D0632862D1059A106808
S31500000460011D1160017816A891E700BFA0F1700187
S3150000047008291ED8DFE801F00555555C5549555544
S315000004801200059A082310680027011D11600168F3
S3150000049016A810220825CDE9005740E0059A1068F5
S315000004A0011D1160016816A8102235E016A8252145
S315000004B06DE7642835D1059A1068011D116006683C
S315000004C0C6F1000C002E304600D560464CF6CD43F2
S315000004D00A28CCF6CC434FF0010907DBA0FB031238
S315000004E063284FEAD20009F10109F7D84C4588BFC5
S315000004F0A1467DB30020002E48BF012008F004016C
S3150000050040EA9100A5EB000B26E0059A1068011D54
S315000005101160016816A80A222346CDE9005800F0AA
S315000005209DF8199F5146B7F1FF3F3FF727AF71E09E
S31500000530059A1068011D1160046800BF2178002922
S31500000540EFD016A8013400F069F8199FB7F1FF3F04
S31500000550F4DC5FE04FF0000B5FEA887509D544B91B
S31500000560002FDED4002E23D45FEA487028D52B2135
S3150000057020E05FEAC870F3D1BBF1000FF0D0D94597
S31500000580EED2CDE9025CABF1010500BF16A8202131
S3150000059000F044F8199F002F3CD4681EA84202D2EE
S315000005A0A9450546F2D3DDE9025C00F1010BD7E768
S315000005B02D21664616A800F031F8199F002F29D480
S315000005C0002D06D416A831460A222346CDE900B8E6
S315000005D0A5E708F001002043F4D1BBF1000FF1D0EC
S315000005E0ABF101055D4538BFD945EBD216A83021E0
S315000005F000F014F8199FAB46002FF1D50AE047B179
S31500000600189C24B1049806A92246FFF78AFE2744BF
S3150000061000E0002738461BB0BDE8F08F10B5044651
S31500000620D0E90120431C934207D822681154E068A0
S3150000063062680130E0601846A360904218BF10BDA2
S3150000064021682069FFF76DFEA168884202D100206B
S31500000650A06010BD4FF0FF30E06010BD2DE9F04FF7
S3150000066081B0DDF828A01F4615468B46914281468B
S315000006704FF0010405D35846B0FBF5F00134A8420B
S31500000680FAD20B99A74288BF3C46BAF1000F1DD09B
S3150000069011F001001AD14FF02008880748BF4FF02B
S315000006A030082020002F18BF804600BFBAF1000F87
S315000006B00CD054450AD248464146AAF1010AFFF732
S315000006C0ADFFD9F80C00B0F1FF3FEFDCD9F80C0014
S315000006D000283AD4012600BF022F01D3013F03E0D0
S315000006E0BBFBF6F0A84202D306FB05F6F4E747F695
S315000006F0A808C0F2000800BFBBFBF6F7484618F88A
S315000007000710FFF78BFFD9F80C00002806D4B6FBBC
S31500000710F5F007FB16BBB5420646EDD90B98C007A8
S3150000072018BFBAF1000F0AD10FE048462021FFF7A3
S3150000073075FFD9F80C00AA46B0F1FF3F05DDAAF116
S315000007400105554538BF5445EFD301B0BDE8F08FDC
S3150000075082B080B582B0CDE9042304AA019201AA31
S31500000760FFF7FCFD02B0BDE8804002B0704770B1F3
S31500000770007902280BD140F6D410C2F20000012104
S31500000780017040F6D510C2F20000002101707047DA
S3150000079058B1007940F6D711C2F20001087040F650
S315000007A0D610C2F2000001210170704788B040F6F1
S315000007B0EC4047F6C811C2F20000C0F2000100F09A
S315000007C00FFF78B147F6080147F6560247F6600371
S315000007D0C0F20001C0F20002C0F200030020FFF7E1
S315000007E0B7FF01BE47F69C10C0F2000000684068E3
S315000007F04068816807C91268904788B10E280FD0F3
S3150000080047F6080147F6560247F2C073C0F20001E8
S31500000810C0F20002C0F200030020FFF799FF01BEFC
S3150000082040F62434C2F20004204640F20741012279
S3150000083001F0B5F90A204FF47A7102F000F820466B
S3150000084040F2074100224FF0000901F0A8F90A2002
S315000008504FF47A7101F0F3FF204640F2074101227E
S3150000086001F09DF90A204FF47A7101F0E8FF40F695
S315000008702C3047F69C11C2F20000C0F2000100F0D5
S3150000088003FA78B147F6080147F6560247F2DB73DA
S31500000890C0F20001C0F20002C0F200030020FFF720
S315000008A057FF01BE40F6D61A40F62C3440F6D7164E
S315000008B040F6642840F2020B9FEDA09ADFEDA09A65
S315000008C09FEDA0BA9FEDA0CA9FEDA0DA40F6E4170F
S315000008D0C2F2000AC2F20004C2F20006C2F2000826
S315000008E0C0F2030BB3EE048AC2F2000720468AF870
S315000008F0009000F0EAFBD8B1034623F00100B0F502
S31500000900403F6BD147F60811C0F200012CC93846AA
S315000009102CC00A8889780280817000F019F947F2A4
S3150000092088710020C0F20001FFF712FF6FE000BFE0
S315000009309AF800000128FBD18AF8009040F6B830FA
S315000009404FF47A7101F07BFF20468AF8009000F0A0
S31500000950CBFB0028D0D19AF800000128FBD1204615
S315000009608AF800908AF8009000F0F5FB0028C3D1C1
S315000009709AF800000128FBD18AF800903078032805
S315000009802AD03078042827D02046414600F0BCFB08
S31500000990584501D13220D3E703460028ADD18AF865
S315000009A0009000BF9AF800000128FBD120468AF883
S315000009B000908AF8009000F0CEFB00289CD100BF82
S315000009C09AF800000128FBD18AF8009030780328B5
S315000009D002D03078042821D1122300BF47F2B17229
S315000009E038468021C0F2000203F0BEFA00F0B0F8EB
S315000009F047F6080147F6560247F271730020C0F227
S31500000A000001C0F20002C0F20003FFF7A1FE4FF49E
S31500000A107A704FF47A7101F012FF67E72046B0EE64
S31500000A20480AF0EE490A00F08FFB00287FF464AF15
S31500000A3040F68425C2F20005204641462A4600F0CB
S31500000A407FFB00287FF458AF40F6D811C2F20001B0
S31500000A50087895ED120A95ED13EA01280CD140F6B7
S31500000A60DC1040F6E011C2F20000C2F2000190ED87
S31500000A70002A91ED001A0DE00120087040F6DC1006
S31500000A8040F6E011B0EE4E1AB0EE402AC2F2000077
S31500000A90C2F2000130EE422A22EE292A20EE0B3A5B
S31500000AA03EEE411A33EE022A21EE0C1A31EE021AFC
S31500000AB080ED000A95ED15FA10EE100A81ED00EAB8
S31500000AC071EE0D8A02F0E5FF41EC1A0B1EEE100ADC
S31500000AD002F0DFFF41EC1E0B1FEE100A02F0D9FFF9
S31500000AE041EC1F0B18EE900A02F0D3FF41EC100BFD
S31500000AF047F6240238468021C0F200028DED00AB95
S31500000B008DED02EB8DED04FB8DED060B03F02CFA5B
S31500000B1000F01EF800283FF47AAF47F6080147F6C2
S31500000B20560247F2F5730020C0F20001C0F200023F
S31500000B30C0F20003FFF70CFE01BE68E70000484262
S31500000B401613EBBE8FC47F3F68A19240EA750B3B3C
S31500000B5070B540F6E410C2F2000003F0DFF900B30E
S31500000B6040F6D5140246C2F2000400BF20780028E1
S31500000B70FCD140F6D415C2F20005002601202E70E5
S31500000B80207040F6EC4040F6E411C2F20000C2F2DA
S31500000B90000100F0C7FE08B1267070BD2878012854
S31500000BA0FCD1002070BD022818BF704740F62430E3
S31500000BB047F65841C2F20000C0F2000100F0E4BF5F
S31500000BC080B5FFF7F3FD002080BD80B5C16D002222
S31500000BD0C8690023C4F2A012C4F24823C1E909235C
S31500000BE002F0F8FC002818BF012080BD06207047DF
S31500000BF0062070470620704706207047062070477B
S31500000C00B0B586B0C36D1446D3E906C0D3E9085221
S31500000C109B6A0291CDE9043202AB6146002200953F
S31500000C2002F002FD00281AD4002100BF6A58625063
S31500000C3004313429FAD1A96B0128A163696C4FF0FC
S31500000C400000A164A96CE164E96C2165296D616508
S31500000C50696DE16504BF0120C0F2030000E00120D8
S31500000C6006B0B0BD062070470620704706207047C4
S31500000C7006207047062070470620704706207047FA
S31500000C8006207047062070472DE9F04F89B0416570
S31500000C900D460968EE68816504466868E665A066E3
S31500000CA0A8680222E06628692067686960670020F4
S31500000CB084F8460084F8482084F8470007C912687B
S31500000CC0904710B109B0BDE8F08FA06E20B1204664
S31500000CD000F092FB0028F5D1E06D01968269D0E91B
S31500000CE0043105AE11610189136291810078932761
S31500000CF002284FF0300008BF602018445062E06DB3
S31500000D00221D80694FF0940A029004F1440003907A
S31500000D10002040F2E73900BF804620469346114640
S31500000D200222A78000F0C8FA0028CBD103992046FA
S31500000D30324640F2011384F844A000F077FA002806
S31500000D40C0D12046C82100F04FFB0028BAD19DF93A
S31500000D5014005A46B0F1FF3F03DCC84508F1010014
S31500000D60DAD340F2E630804500F29081039E0020FF
S31500000D7084F844002046314640F2012300F056FA3A
S31500000D8000289FD1029FA088B98900BAB1EB104F05
S31500000D9040F07E81202084F844007A1C20463146AB
S31500000DA040F2016300F042FA00288BD1262084F835
S31500000DB04400786A3A6990F82C0031460002431CD8
S31500000DC0204600F033FA00287FF47CAFE06D314610
S31500000DD0D0F818A00020CDE90700CDE90500B7201E
S31500000DE084F8440020465A4640F201135F4600F05C
S31500000DF01DFA00287FF466AFDAF820600AF10102D6
S31500000E0005A9304600F0A0FA307939463870DAF88C
S31500000E10200090F805C0BCF1000F09D0012005AAFA
S31500000E20C3B2013012F8017BC6B26645CF54F7D97A
S31500000E300CF1010220460E4600F03EFA00287FF42F
S31500000E4041AFDAF820003146007B3070DAF8200036
S31500000E5090F80DC0BCF1000F09D000690122D3B291
S31500000E60013210F8017BD6B26645CF54F7D90CF1A2
S31500000E70010220460E4600F01FFA00287FF422AF3A
S31500000E80DAF820003146007D3070DAF8200090F85C
S31500000E9015C0BCF1000F09D080690122D3B201321E
S31500000EA010F8017BD6B26645CF54F7D90CF1010292
S31500000EB0204600F001FA00287FF404AFDAF820009B
S31500000EC05946007F8BF80000DAF8200090F81DC024
S31500000ED0BCF1000F09D0006A0122D3B2013210F82A
S31500000EE0017BD6B26645CF54F7D90CF101022046F4
S31500000EF000F0E2F900287FF4E5AEA06E10B1002004
S31500000F0084F8510093202071DAF8200059460078C1
S31500000F1002226071204600F0CFF900287FF4D2AE9D
S31500000F20A06E002800F0B68094F851000028FBD08F
S31500000F30002084F85100DAF82000039990F8240084
S31500000F405A4684F84400DAF8200090F8250000029A
S31500000F50431C204600F06AF900287FF4B3AEA0884F
S31500000F6005A900BA000CAAF80A00E08800BA000C2D
S31500000F70AAF80800E06DD0F818800020D8F82460A0
S31500000F80CDE90700CDE9050008F10102304600F081
S31500000F90DBF930792071D8F82400407950B101216D
S31500000FA005AACBB2013112F8016BCFB287420BF81A
S31500000FB00360F6D9421C2046594600F07DF9002808
S31500000FC07FF480AED8F82400007B8BF80000D8F8B8
S31500000FD02410487B50B109690122D3B2013211F8BD
S31500000FE0017BD6B286420BF80370F6D9421C204626
S31500000FF0594600F061F900287FF464AED8F8240061
S31500001000007D8BF80000D8F82410487D50B189691E
S315000010100122D3B2013211F8017BD6B286420BF817
S315000010200370F6D9421C2046594600F045F90028BF
S315000010307FF448AED8F82400007F8BF80000D8F87B
S315000010402410487F50B1096A0122D3B2013211F847
S31500001050017BD6B286420BF80370F6D9421C2046B5
S31500001060594600F029F900287FF42CAE019829464C
S31500001070C06802682046904700287FF423AE44F6F5
S315000010804470C5F64D20206000201BE6142019E6AA
S31500001090062017E60DF113069427039920463246DB
S315000010A040F2011384F8447000F0C0F800287FF481
S315000010B009AE2046322100F097F900287FF402AEEF
S315000010C09DF913000028E8D435E7022180F848107E
S315000010D0C16D93238A69014601F8043F526A137869
S315000010E00222437100F0E8B8022180F8481001217D
S315000010F080F846109423014600F1450201F8443F6A
S3150000110040F2011300F092B890F84820012A1EBF61
S315000011100220C0F2030070478C46022180F8481076
S31500001120C16D8B69596A91F82420014601F8442F54
S315000011305A6A92F825201202531C624600F076B8CD
S31500001140C36DDB689B691847C16D002081ED090AF4
S31500001150C1ED0A0A7047012180F84710B7230146FE
S31500001160021D01F8443F40F2011300F05FB810B5CC
S3150000117082B00168027AD1F85CE0CB6E1046DEF8E8
S3150000118018C00093002A18BF06208DF804000B68CB
S3150000119044F64474C5F64D24A3421BD191F846008B
S315000011A0F2B9C0071CD09EF800000B2801D0012818
S315000011B029D1DCF8240091F84520407F4FF0FF3319
S315000011C003EB500002F01F02904221D002208DF85E
S315000011D0040022E0012281F8502081F8520023E029
S315000011E091F84700E2B9C0071AD091F90400420607
S315000011F04FF0040258BFC0F3C11200208DF804203E
S3150000120081F847000CE091F94500B0F1FF3FDDDDC4
S3150000121001208DF8040081F84800002081F846007E
S31500001220096F09B16846884702B010BD2DE9F04F35
S3150000123081B00646006844F64478C5F64D28A0EB12
S315000012400800B0FA80F0994693468A46400905247C
S315000012500025C00704BF002086F85000B06D5A462E
S31500001260816800680F6951464B46B84700BB306835
S31500001270404516D096F8500040B93046012100F09E
S31500001280B3F8642D05F10105F4D310E0306840454C
S3150000129007D096F8520020B1013C20044FF0000020
S315000012A0D7D196F85200002818BF122000E014206B
S315000012B001B0BDE8F08FD4D42DE9F04705460068AB
S315000012C044F64478C5F64D28A0EB0800B0FA80F045
S315000012D092460E46400905274FF000090024C00734
S315000012E008BF85F85090A86D524681680068CB68A3
S315000012F031469847002818BFBDE8F0872868404562
S3150000130017D000BF95F8500040B92846012100F0DB
S315000013106BF8642C04F10104F4D311E0286840450D
S3150000132007D095F8520020B1013F38044FF0000075
S31500001330D5D195F85200002818BF1220BDE8F087D5
S315000013401420BDE8F087D4D44379002B43D010B5E0
S315000013509FED210A9FED211A9FED212A9FED213A4B
S315000013604FF0000C8368D47833F80CE0937805EEE0
S31500001370104A04EE103AB8EE444A14795379B8EE9E
S31500001380455A24EE004A9EFA8EFE34EE054A05EED4
S31500001390104A03EB2E43B8EE455A06EE103A35EEE8
S315000013A0015AB8EEC66A25EE065A35EE025A25EE01
S315000013B0044A84EE034ABDEEC44A14EE103A5BBA00
S315000013C021F80C300CF1020344795FFA83FCA44542
S315000013D0C8D3BDE810407047000080430000204499
S315000013E00000FAC800803BCB80B508464FF47A71FE
S315000013F001F025FA002080BDB0B5856E044695E85B
S3150000140007001268904758B9A9682868D1F80CC037
S3150000141041F22F41C0F2000122460023E04700B10D
S31500001420B0BDA96828684968BDE8B040084780B5DE
S3150000143082B00068016859B1C26E416F0092012204
S315000014408DF8042080F8482029B16846884702E0D4
S31500001450012180F8511002B080BD01600246486843
S315000014605060886890600869D061C86843F221318D
S3150000147010620020C3F22C211076D160704701461D
S315000014804068002242600020CA60704700F004B83D
S3150000149000F042B800F05BB8F0B581B0064640688F
S315000014A01446876830460D4600F016F808B101B0BC
S315000014B0F0BD307E2246014600281CBF2946204644
S315000014C0C6E90401B9683868D1F804C02946002382
S315000014D001B0BDE8F040604770B504464068416819
S315000014E0A14217D08668A568B16830680B69A968FB
S315000014F02A7B9847002818BF70BD60682246446062
S31500001500B16830684E69E9690023B047002808BF12
S31500001510002070BD002070BDF0B581B00646406861
S315000015201446876830460D46FFF7D6FF08B101B06E
S31500001530F0BD0020C6E90400B9683868D1F808C0D3
S3150000154029462246002301B0BDE8F04060472DE958
S31500001550F041064640681C46856830461746884670
S31500001560FFF7BAFF08B1BDE8F081C4F30720C6E96A
S315000015700407A9682868D1F808C0E2B241460123E9
S31500001580BDE8F041604770B584B0046800796168D1
S3150000159000F0FE008A68216A0228019113D1616970
S315000015A000268DF80C60A9B1936810685D68226901
S315000015B00023A8472661666180B1E16903208DF8A2
S315000015C00C0049B90AE091681068C9688847032089
S315000015D08DF80C00E16909B101A8884704B070BD17
S315000015E00A780123934013F0060F05D0CB695B6898
S315000015F01B781B0700F1E1802DE9F04748F2000354
S31500001600C4F2110343EA02224FF00008026280F896
S315000016100080C1614B6943628B69C0F82880C36250
S31500001620837823F003035E1C86704E7816B943F068
S315000016300203837091F90B704EF2001CCEF2000C7F
S3150000164007F01F044FF0010E0EFA04F60CF18004A9
S315000016507A098D7A44F8226046F2003ABFF34F8F3A
S31500001660C4F2000ABFF36F8F5AF8272040F660597C
S3150000167022F480324AF827205AF827202A010CF54E
S315000016804075C2F20009EA5549F8270091F905208C
S315000016900F7902F01F060EFA06F6530944F8236086
S315000016A0BFF34F8FBFF36F8F5AF8223023F4803386
S315000016B04AF822305AF822303B01AB5449F822004E
S315000016C091F907208B7902F01F060EFA06F65709E4
S315000016D044F82760BFF34F8FBFF36F8F5AF822602D
S315000016E01B0126F480364AF822605AF82260AB5471
S315000016F049F8220091F909200B7A02F01F060EFA2A
S3150000170006F6570944F82760BFF34F8FBFF36F8F74
S315000017105AF822401B0124F480344AF822405AF831
S315000017202240AB5449F82200EFF310828EF3108862
S3150000173044F204050B78C4F208054FF000442E6805
S3150000174024FA03F326EA03032B602B6882F310883E
S31500001750026A82F80280026A82F80480026A82F8CB
S315000017600980026A82F80A80026A82F80B80026A9D
S31500001770A2F81A800A780EFA02F340F2F9321342FE
S3150000178002D0036A4024DC74036A06241C770B78B3
S315000017900EFA03F3134203D0026A4FF4784393829E
S315000017A0CA784E788B78D20042EA03123EB1032EF5
S315000017B008BF42F04002F22602E00322B0E0E22631
S315000017C0036A02271A70026A00259671CA69137B9A
S315000017D007EA4307082B036A08BF0A275F73066AEE
S315000017E05378977835721678056A06F0FE06022E4B
S315000017F04FEAC31667F3451609D1FF236B701278BB
S31500001800022A026A08BF46F01006D67116E0EE718B
S315000018105268036A97785F7057781E7807F0030757
S3150000182006F0FC0637441F70D7789F74DF7912786C
S3150000183007F0A30702F05C023A44DA710022C3699A
S31500001840C0E90322C0E90522D1F81CE093F905306E
S315000018509EF800105AF8234003F01F0524F4803444
S315000018604AF823405AF82340012404FA05F60CF5F9
S31500001870C0755B09BFF35F8F45F823604CF82360A2
S31500001880C36993F90B305AF8236026F480364AF878
S3150000189023605AF8236003F01F0604FA06F65B0974
S315000018A0BFF35F8F45F823604CF82360C36993F953
S315000018B007305AF8236026F480364AF823605AF82F
S315000018C0236003F01F0604FA06F65B09BFF35F8F79
S315000018D045F823604CF82360C36993F909305AF838
S315000018E0236026F480364AF823605AF8236003F012
S315000018F01F06B4405B09BFF35F8F45F823404CF8E1
S3150000190023401C23076A63F39F01B970BEF80A10CF
S31500001910018144F65511C5F243314160BDE8F047F7
S315000019201046704780B5D0F820E09EF802C00CF053
S315000019307B038EF80230837803F00303A2EB030CDB
S315000019400B44026AC0E9033C937843F0800393702A
S31500001950827802F00302022A05D10988006A41F45E
S315000019607E41C18102E00978006AC170002080BD15
S31500001970EFF303804FF0704101EB006046F2003157
S315000019808015C4F20001425822F480324250415878
S3150000199040F66051C2F200010858C1690A6901693E
S315000019A0C2B9C1B1817801F00302C168022A05D12A
S315000019B00988026A41F47E41D18102E00978026A0F
S315000019C0D1708178026901F00303D11AC2680161FE
S315000019D01A44C26071B9016A8A7802F07B02043245
S315000019E08A70416A00294FF00001C16002D080224E
S315000019F000F001B870472DE9F04385B08146806A52
S31500001A000DF1040830B1054695E8D800C4468CE8C7
S31500001A10D80000E04046D9F81C301B78816003608E
S31500001A200271D9F82C10C160D9F824108847D9F86A
S31500001A30280010B198E88E008EC005B0BDE8F0838E
S31500001A4010B582B0EFF303804FF0704101EB0060F8
S31500001A5046F200318015C4F20001425822F4803269
S31500001A604250415840F66051C2F200010C58A0782D
S31500001A7000F00302206A022A03D1018A6FF35F2174
S31500001A8000E04179A069019198B1606901A902F06D
S31500001A9034FAA0786169A26900F003000144101AC3
S31500001AA06161A0610ED1606A60B120460021012209
S31500001AB003E0606A30B12046042202B0BDE810405F
S31500001AC0FFF799BF02B010BD10B54FF07041EFF3AC
S31500001AD0038001EB006140F660528815C2F20002F5
S31500001AE010580C16026A937803F07B039370426ACF
S31500001AF01AB100210222FFF77EFF46F20030C4F23F
S31500001B00000050F8241021F4803140F8241050F8D9
S31500001B10240010BD4FF07041EFF3038001EB006C21
S31500001B2040F660514FEAAC50C2F200010858817885
S31500001B30036A01F00301022903D1198A6FF35F21B9
S31500001B4000E0597910B51A79D40602F0380204D5A6
S31500001B501C7F64F3861282F040021C7904F0C704ED
S31500001B601C71436A4FEA2C640BB1FFF744FF46F23F
S31500001B700030C4F2000050F8241021F4803140F8FF
S31500001B80241050F8240010BD80B545F25422C5F249
S31500001B904F020260084600F017F8002080BDC8B268
S31500001BA0012383409BB24FF4803C002A08BF0CFA05
S31500001BB000F36FF0010000EAD11008220101C4F21F
S31500001BC0080200205350704770B5044600F05CF8D8
S31500001BD040F65C5CEFF31080012181F31088C2F2BD
S31500001BE0000CDCF8001039B940F60351C4F20801C4
S31500001BF000220A7040220A70DCF800100131CCF88D
S31500001C00001080F31088208810B340F6000E0021E3
S31500001C10C4F2080E606800EBC102928850F83130B9
S31500001C20100ADD03D2B20BD50EEB801555F82260F3
S31500001C3026F4803645F8226023F4803645F8226083
S31500001C400EEB801040F82230208801318142E1D32A
S31500001C50EFF31081012080F31088DCF8000020B13A
S31500001C60DCF800000138CCF80000DCF8000038B9D8
S31500001C7040F60350C4F2080000220270802202706F
S31500001C8081F3108870BDD4D42DE9F04F81B004469D
S31500001C90008800285CD043F240084EF2BB4A47F663
S31500001CA0CC4BC4F208080026C4F2010AC0F2000BAD
S31500001CB04FF00109002700BF60683BF8172000EBD2
S31500001CC0C600818891423CD100689AF8001000F065
S31500001CD0B85009FA07F5B0F1807F05EA010015D181
S31500001CE050B9012000F081FE9AF8000028438AF8D6
S31500001CF00000012000F050FE18F91700002820D43B
S31500001D0018F8170040F0800015E000BF50B1012020
S31500001D1000F06BFE9AF80000A8438AF80000012044
S31500001D2000F03AFE18F91700B0F1FF3F09DC18F889
S31500001D30170000F07F0008F81700C820012100F006
S31500001D407EFD0137032FB7D1208801368642B1D3F5
S31500001D5001B0BDE8F08F10B5044608784FF20002D6
S31500001D60C4F2090202EB00202061216088684FF06E
S31500001D70010C6060087B44F204022072C869C4F258
S31500001D8008026063086AE0630020A063C4E90500F6
S31500001D90C4E9070084F8290084F82A0084F82B0097
S31500001DA084F82C00EFF3108E8CF310880B781068F3
S31500001DB0C3F109030CFA03F39843106010688EF31D
S31500001DC01088204600F0B0F844F64311C5F24921C8
S31500001DD00020E16010BD9C46012380F82AC000F077
S31500001DE065B99C46002380F82AC000F05FB9B0B5FB
S31500001DF0044600690025C5712168204600F094F864
S31500001E0094F82600216984F82800A069B322C4E961
S31500001E100750002084F82C5084F82A50CA71B0BDAF
S31500001E200346416000201A7270478446C0E90D13CC
S31500001E300020CCF83C207047C0684BF2BD62CAF661
S31500001E40B6521044B0FA80F0420900200A7070477A
S31500001E50B0B5044600690025C5712168204600F02A
S31500001E6063F894F82600216984F82800A0694EF2E8
S31500001E708013C4E90750B32084F82C5084F82A5004
S31500001E80C8712069CEF20003C5712068E56090F93B
S31500001E901110012001F01F0200FA02F2490943F86D
S31500001EA02120BFF34F8FBFF36F8F216891F90E107A
S31500001EB001F01F0200FA02F2490943F82120BFF39C
S31500001EC04F8FBFF36F8F216891F9101001F01F0239
S31500001ED000FA02F2490943F82120BFF34F8FBFF3FE
S31500001EE06F8F216891F90F1001F01F0200FA02F2BC
S31500001EF0490943F82120BFF34F8FBFF36F8FEFF3EC
S31500001F00108180F31088226844F204031278C4F228
S31500001F100803C2F109021D6890402843186018683A
S31500001F2081F310880020B0BDF0B50269002313705C
S31500001F30026940231370026913785B06FCD5C0233F
S31500001F40137002680369526A082512794EF2001C62
S31500001F5042F0E0021A7402680369526ACEF2000C7B
S31500001F60D27840F6605E42F0E0025A740268036975
S31500001F70526AC2F2000E927862F306159D700268EC
S31500001F800369526A15785278013DB5FA85F56D09EF
S31500001F9045EA420242F00402DA70026844F2402541
S31500001FA052680369C0F20F05AA424FF0770208BFD4
S31500001FB06FF008025A710269002393710269B32314
S31500001FC0D3714A7B91F9116013010CF54072935558
S31500001FD046F200334EF82600C4F2000353F82640BA
S31500001FE006F01F0524F4803443F8264053F82640B3
S31500001FF0012404FA05F70CF5C0757609BFF35F8F67
S3150000200045F826704CF826704E7B91F90F70360114
S31500002010D6554EF8270053F8276026F4803643F845
S31500002020276053F8276007F01F0604FA06F67F09B3
S31500002030BFF35F8F45F827604CF827604E7B91F918
S3150000204010703601D6554EF8270053F8276026F44F
S31500002050803643F8276053F8276007F01F0604FA16
S3150000206006F67F09BFF35F8F45F827604CF82760B7
S315000020704E7B91F90E10360156544EF8210053F856
S31500002080212022F4803243F8212053F8212001F048
S315000020901F0204FA02F24909BFF35F8F45F82120B7
S315000020A04CF8212000699F210170F0BD90F808C00E
S315000020B0C0E90512BCF1010F08D101794FF4807C0B
S315000020C043EA4101A0F825C080F8241010B581B07C
S315000020D04EF2200180F82930C4F20101096800910E
S315000020E0009901F00F210091DDF800E0DDF800C055
S315000020F001690B7C90F82C409CB9CEF30322A2EB2D
S315000021001C6203FA02F2042A06D3920891F90130FE
S31500002110002B03D5013AF9D108216CE00022CA71DF
S31500002120826990F82630002180F82810C0E907213E
S3150000213080F8273080F82B1080F82D1080F82E10AC
S3150000214080F82F1080F830100168D0F810C0496A66
S315000021500B784C78013BB3FA83F34A795B0991F823
S3150000216006E043EA440343EA021242EACE1242F090
S3150000217004028CF803200269137943F010031371EB
S315000021800269137903F0F70313710269137903F0F7
S31500002190EF0313710269C979137903F07F0343EAE8
S315000021A0C111117101694A7942F001024A7101684F
S315000021B091F90F1000290BD401F01F02012303FA35
S315000021C002F24EF200134909CEF2000343F8212031
S315000021D001694A7A02F0F3024A720169BF22CA71A2
S315000021E090F82C1019B1002180F82C1003E000693A
S315000021F0022141700021084601B010BD10B582B021
S31500002200EFF303804FF0704101EB006046F20032BD
S315000022108015C4F20002835823F48033835080581B
S31500002220EFF3038001EB006040F660518015C2F2C7
S3150000223000010C5894F82D00B8B1E069002861D06F
S315000022402168496AC979012904D12046052100F08F
S3150000225037FAE069012857D0022833D0032840D145
S315000022602069017941F040013AE0A069022804D8CA
S315000022702069017941F040010171E06901280ED120
S315000022802069017941F0100101712069017941F05D
S31500002290080101712069017901F0EF0101712068DF
S315000022A0406AC079012803D12046052100F008FACA
S315000022B02069C07C8DF807009DF80700012084F88E
S315000022C02D001FE02069017941F01001017120699C
S315000022D0017941F0080101712069017901F0EF01EE
S315000022E00171D4E90401C07C226A8854D4E907103C
S315000022F001300139C4E9071004D12069017901F0E0
S31500002300BF01017102B010BD94F82A00012831D135
S3150000231020684EF2801390F90F10012001F01F0281
S3150000232000FA02F24909CEF2000343F82120BFF376
S315000023304F8FBFF36F8F2169CA7942F08002CA714D
S3150000234021690A7942F010020A7121690A7902F0BC
S31500002350F7020A7121690A7902F0EF020A7121690E
S3150000236004224A7021694A7902F0FE024A7184F811
S315000023702C00B6E72069417A01F0F7014172206925
S3150000238008214170ADE7D4D4B0B5EFF303804FF028
S31500002390704146F2003501EB0060C4F2000580157D
S315000023A0425922F4803242514059EFF3038001EB47
S315000023B0006040F660518015C2F200010C5894F896
S315000023C02700C8B194F82600032806D194F82800FF
S315000023D0022802D194F8300068B394F824002169E9
S315000023E0887494F8280094F82710013084F828009F
S315000023F0481E84F82700B0BD94F82900D8B9206893
S31500002400406AC079012808D194F82B0028B9206ABF
S3150000241018B12046052100F053F9E06960B1D4E90E
S315000024200401226A895C8174D4E9071001300139FC
S31500002430C4E9071000D0B0BD2069C17901F07F0161
S31500002440C17120696FF0BE0190F90720B2F1FF3F1C
S3150000245003DC002901F10101F6D1206890F9100092
S3150000246055F8201021F4803145F8201055F8200049
S31500002470206890F9100000280BD400F01F010122FB
S3150000248002FA01F14EF280224009CEF2000242F831
S3150000249020102069C17941F04001C171B0BDD4D48A
S315000024A010B5EFF303804FF0704101EB006040F68A
S315000024B060518015C2F200010C582068406AC0794C
S315000024C0012803D12046052100F0FAF894F82900E6
S315000024D0012806D194F82700012802D194F830008B
S315000024E080B3E06970BB94F82A00012822D12068E5
S315000024F0012290F90F004EF2801300F01F0102FA3C
S3150000250001F14009CEF2000343F82010BFF34F8FCC
S31500002510BFF36F8F2069C17941F08001C1712069D5
S31500002520042141702069417901F0FE01417184F86E
S315000025302C2007E02069417A01F0F70141722069F9
S31500002540082141702069C17901F0BF01C17120697C
S315000025506FF0BE01C279520603D5002901F10101CF
S31500002560F8D1EFF303804FF0704101EB006046F2C3
S3150000257000318015C4F20001425822F480324250E4
S31500002580405810BDB0B5EFF303804FF0704101EB3A
S31500002590006040F660518015C2F200010C582169B6
S315000025A04A7A4B7A02F01F0003F0E0030F2802F08C
S315000025B003024B7201D83AB924E021694B785B06D5
S315000025C058BF42F00102D2B1012084F82B002069E5
S315000025D00025C57121682046FFF7A6FC94F8260061
S315000025E0216984F82800A069C4E90750B32084F85B
S315000025F02C5084F82A50C871204601214DE04A78B3
S31500002600520611D4010706D494F82C20012A31D1A0
S3150000261010F004022ED0E06910B994F82B0098B39C
S31500002620002919D4012036E0012084F82B00082067
S31500002630487020682169406A02784379807942EAC5
S31500002640031242EAC01040F00200C87020694179C6
S3150000265041F00101417122E094F82600002184F83E
S315000026602800A069C4E90710012084F82C1084F81A
S315000026702A100DE0400712D52068406AC07901286B
S315000026800DD12046042108E094F8290080F00300CB
S315000026902169B322CA71C1B2204600F011F8EFF3E6
S315000026A003804FF0704101EB006046F20031801567
S315000026B0C4F20001425822F4803242504058B0BD64
S315000026C010B582B00446806B00281ABFD0E90023FB
S315000026D0CDE900236846E26B01710260616B8847B1
S315000026E0A06B18B1DDE90012C0E90012002084F8E1
S315000026F02B0002B010BD4EF22000C4F20100817919
S3150000270040F200520068C2F2000252F82110C0F3F3
S31500002710026021FA00F040F68C51C2F20001086016
S315000027207047D4D4F0B54EF2FE3CC4F2010C4CF224
S3150000273000124AF20350C4F20102ACF80000012074
S31500002740908000BF90880028FCD147F2000301204A
S31500002750C4F2000310809860186040F2005342F6FD
S31500002760005E41F200244CF200274EF22001C2F234
S315000027700003C0F2311EC0F27A044FF40045002671
S31500002780C0F6EB37C4F20101C3E900E4C3E902561F
S31500002790C3E904678F790D6853F82770C5F302659E
S315000027A040F68C5E27FA05F4C2F2000ECEF8004021
S315000027B08CF882008E7500BF087FC007FCD042F2FD
S315000027C01170088100208872087F8006FCD50320DE
S315000027D0107741F22120C2F20100086005208871BD
S315000027E088790A6853F82000C2F30262D040CEF816
S315000027F0000042F20800C4F20000F1220271012238
S31500002800F023027003714FF425400A7481F83220D8
S31500002810ACF80000F0BD10B543F22800C4F2080081
S3150000282000240470012000F0E0F84EF2BB41C4F22F
S31500002830010101200C70BDE8104000F0ADB840F673
S315000028408C52C2F20002126841F20023C0F27A03EF
S315000028509A4201FB00F00FD340F6FF01C0F23D01A2
S3150000286011444DF68362C4F21B32A1FB0212110D14
S31500002870A0FB0101E9B11FE04CF6002348F6381130
S31500002880C3F69A33C0F24101B3FBF2F2884207D293
S315000028904FF47A7100FB01F0B0FBF2F0800808E01B
S315000028A09200B0FBF2F0884206D24FF47A7100FB38
S315000028B001F028B100F005B84FF0FF3000F001B884
S315000028C0704701380028FCD17047D4D42DE9F04177
S315000028D046F22018C4F20008B8F80000B8F8201034
S315000028E040F61C5501EA0006B7B20024C2F2000504
S315000028F027FA04F0C00704D055F8241009B1204681
S3150000290088470134102CF3D1A8F81060BDE8F08197
S3150000291070B584B048F248060320C4F2000600F001
S3150000292064F86FF0FF0047F6644430604FF0FF3004
S315000029300021C0F200040122CDE9020034F8113072
S3150000294002FA01F5002B01F1010118BFA84308297D
S31500002950F4D14EF280320190002001A9CEF200029D
S3150000296051F8203006EB8005AB6242F8203001308A
S315000029700328F5D1032000F00FF846F200310020BD
S31500002980C4F2000134F810200AB141F820200130C9
S315000029900828F7D104B070BD0122EFF3108182F34D
S315000029A0108840F68052C2F2000232F8103023B18D
S315000029B032F81030013B22F8103032F810208AB974
S315000029C04EF2FE3CC4F2010C47F6E852BCF8003069
S315000029D0C0F2000232F8100043F4254222EA000059
S315000029E0ACF8000081F31088704780B50122EFF340
S315000029F0108182F3108840F68052C2F2000232F84B
S31500002A0010308BB94EF2FE3C47F6E853C4F2010C87
S31500002A10C0F20003BCF800E033F8103043EA0E03BE
S31500002A2043F42543ACF8003032F81030013322F875
S31500002A30103081F3108880BD00F006F8FEF7C0F86C
S31500002A40FEE700BE7047D4D4B0B54EF60850CEF2BD
S31500002A5000004FF47001C0F8801040F20001C0F28F
S31500002A600001016000200024FEF79DF8FFF75AFEE2
S31500002A700120FEF798F840F20010C2F2000080F341
S31500002A800A88002000F050F8FFF735FEFFF7C3FE76
S31500002A900320FFF7AAFF40F61050C4F208004FF6D5
S31500002AA0FF7100BF20F8141001340C2CFAD103205A
S31500002AB0FFF772FF0320FFF798FF0420C4F20E0011
S31500002AC00021016041608160C1600320FFF764FF5F
S31500002AD00220FEF768F8012000F026F840F694542C
S31500002AE0C2F20004204601F021FA204601F032FA33
S31500002AF048F2565048F25651C0F20000C0F20001AA
S31500002B00081A8410012C08DB48F25655C0F200055D
S31500002B1055F8040B8047013CFAD1FFF7F9FE002077
S31500002B20BDE8B04000F02DB8F0B581B047F60455C9
S31500002B30C0F200052E68044676B16868071D00BF1E
S31500002B407879844204D157E90101091A01F0D1F9D3
S31500002B50013E07F10C07F3D1AE6886B1E86800F1D3
S31500002B60080500BF6879844205D155E90202296843
S31500002B70121A01F0C2F9013E05F11005F2D101B0B9
S31500002B80F0BD7047D4D4D4D42DE9F04381B02DEDF7
S31500002B900C8B90B09FED953A9946F4EE432A9046F9
S31500002BA0B0EE608A0F46F1EE10FA054606DD9FED9F
S31500002BB0903AF4EE432AF1EE10FA0FD488EE011A99
S31500002BC09FED8C3A81EE031A9FED8B3A31EE031A94
S31500002BD09FED8A3A31EE811A71EE032A9FED889AAB
S31500002BE09FED881A82FE893AB4EE413A82FE092A9E
S31500002BF0F1EE10FAB4EE412A31FE03AAF1EE10FA14
S31500002C0010EE100AC9ED102A31FE02BA00F041FF9B
S31500002C1041EC100B03F0B8FB51EC100B00F0D5FFA4
S31500002C20296E0CEE100A042905F130064FF0000457
S31500002C3010D200BF385900F02CFF41EC100B03F006
S31500002C40A3FB51EC100B00F0C0FF30510434242CD0
S31500002C50F0D134E0B6EE00DA385900F01AFF41EC54
S31500002C60100B03F091FB51EC100B00F0AEFF311985
S31500002C7091ED000A01EE100A31EE401A21EE0D1A0E
S31500002C80043431EE000A242C81ED000AE4D195EDDE
S31500002C90150A95ED161A3CEE403A23EE0D3A95EDDF
S31500002CA0172A33EE00CA3BEE410A20EE0D0A30EE3B
S31500002CB001BA3AEE420A20EE0D0A30EE02AA286E5A
S31500002CC000213C2885ED15CA85ED16BA85ED17AAB3
S31500002CD0C5F8801012D88ECE28468EC096E89E0083
S31500002CE09FED491A9EC095ED100A85ED09CA81EE41
S31500002CF0009A85ED0ABA85ED0BAAD2E1B0F5167FEA
S31500002D002CD995ED091A9FED410A3CEE411AB4EE15
S31500002D10401AF1EE10FA21DB95ED041A95ED102A12
S31500002D2032EE411AB4EE401AF1EE10FA16DB00222A
S31500002D306B1893ED001A93ED0C2A043132EE411A0A
S31500002D40B4EE401AF1EE10FAA8BF01322429EFD1F1
S31500002D50D1B206294FF0000188BF012195ED040A82
S31500002D6095ED101AB4EE401AF1EE10FA0DDA9FED59
S31500002D70280A47F6F4520021C0F20002535898423E
S31500002D8006D904310C29F9D14CE011B301266CE0C7
S31500002D90002945D047F60067C0F200070F441144EA
S31500002DA051F8041C17ED010A97ED001A5A1A02EEA3
S31500002DB0102A31EE401AB8EE422A81EE021A401A63
S31500002DC002EE100AB8EE422A21EE021A31EE000A8D
S31500002DD028E08ECE28468EC096E89E009EC085EDE1
S31500002DE009CA85ED0ABA85ED0BAA3DE000008CC341
S31500002DF000247449A306533B8D479BC3EC51B8C0CE
S31500002E00000000000000C842CDCCCC3DA69B443A51
S31500002E100EA21138F99E01C271883342CCBC8CAB2C
S31500002E20B7EE000A00208DED060A00BF291891EDC5
S31500002E30001A91ED0C2A043032EE412A20EE022AC5
S31500002E4032EE011A242881ED001AEFD195ED092AF8
S31500002E5095ED153A95ED101A33EE423A20EE030A37
S31500002E6030EE020A85ED090A002695ED140AB7EE42
S31500002E7000CA80EE010A1FED191A1FED192A80FEFD
S31500002E800C0A20EE010A30EE020A00F045FD1FEDA5
S31500002E901DDA0120002106AA002300BFEF1897EDD6
S31500002EA0001A97ED0C2AD71831EE421AB4EE4D1AD5
S31500002EB0F1EE10FA03F1040398BF0846242B87EDC0
S31500002EC0001AEBD18CEE001A9DED0ABA30EE412ABB
S31500002ED030EE010A82EE000A9FEDF21A9FEDF22A09
S31500002EE020EE010A30EE020A80FE0C0AB1EE041A48
S31500002EF0B4EE410AF1EE10FA31FE00AA000600F027
S31500002F00A780686B02A90F9006A800F0D3FC95ED88
S31500002F100A0A95ED161AB0EE49CA30EE412AB4EE09
S31500002F204D2AF1EE10FA11D506A804A98DED060A70
S31500002F308DED071A00F058FC9DED040AB7EE041A51
S31500002F409FEDD72A20EE010A80FE02CA95ED0BDA24
S31500002F5095ED170A8DED04CA3DEE400A10EE100AF3
S31500002F6000F097FD9FEDCA0B53EC102B00F044FECA
S31500002F70B0EE490A40B306AF05A938468DED06DA2C
S31500002F808DED07DA00F052FC9DED050AB7EE04CA96
S31500002F909FEDC3DAE86AE96D20EE0C0A80FE0D0AA1
S31500002FA0CDE9060103A938468DED050A00F03EFC81
S31500002FB09DED030A9DED051A20EE0C0A80FE0D0A12
S31500002FC09DED04CA30EE410AB4EE4C0AF1EE10FA59
S31500002FD08DED030A30FE0C0A3BEE400A80FE090A1C
S31500002FE005A801A98DED050A00F042FC9DED020A37
S31500002FF09FEDAE1A9DED012A80FE010A82FE011A9E
S31500003000B6EE002A2AEE011A20EE020A30EE019AE6
S3150000301000EE108A9FEDA61A4FFA88F0B8EE400A25
S3150000302030EE011A002820FE010A10EE100A00F008
S3150000303030FD41EC110B9FED980B03F041FC51EC78
S31500003040100B00F0C2FD00EE100A29EE009A28E0EF
S31500003050B4EE4DBA0020F1EE10FA58BF012086F00A
S3150000306001019FED949A08431BD19FED930A9FEDB2
S31500003070931A2BEE000A30EE010A00F04DFC8CEE9E
S31500003080001A30EE412A30EE010A82EE000A9FED68
S315000030908C1A9FED8C2A20EE010A30EE020A85ED8D
S315000030A0200A9FED840A9FED88AA89FE00BA2BEEBE
S315000030B00A9AB0EE490A00F02DF9286E012808D1C7
S315000030C0B0EE490A85ED1EBA00F024F995ED1E1AF8
S315000030D013E095ED1E1A95ED1F2A9FED7C3A3BEE07
S315000030E0414A30EE420A24EE034A20EE030A34EE49
S315000030F0011A30EE020A85ED1E1A21EE0A2A85ED26
S315000031001F0A89ED110A89ED122A89ED131A95F81D
S31500003110980068B1002085F898000020C4F2C830F5
S315000031209FED6B0A85ED199A85ED1A9A68679BE003
S3150000313095ED190A9FED672A39EE405A95ED1A1A50
S3150000314025EE022A32EE000A9FED632A39EE415A35
S3150000315025EE022A32EE011A9FED605A95ED1B3AD2
S3150000316030EE412A32EE055A33EE055A9FED4C3ABF
S315000031709FED5B6A85FE035AB4EE465AF1EE10FAED
S3150000318036FE055A9FED576A95ED1C4A32EE066AE1
S3150000319034EE064AB5EE404AF1EE10FA9FED526A59
S315000031A033FE044A84FE064A9FED506A85ED190AED
S315000031B0B4EE462AF1EE10FA85ED1A1A85ED1B5A81
S315000031C085ED1C4A32DC9FED4A6AB4EE465AF1EEB2
S315000031D010FA2BDC9FED473AB4EE432AF1EE10FAD3
S315000031E006DD9FED453AB4EE434AF1EE10FA19DCDE
S315000031F09FED423AB4EE431AF1EE10FA12DD80EE7C
S31500003200010A95ED1D1A9FED3F2A31EE021ABFEE17
S31500003210002A30EE020A9FED3C2A20EE010A20EE3B
S31500003220023A03E09FED360A22EE003A95ED1D0ABA
S315000032309FED361A9FED262A33EE000A29EE011A73
S315000032409FED333A31EE021AB4EE431AF1EE10FA5C
S3150000325033FE011A80FE020AB4EE410AF1EE10FABC
S3150000326031FE000A85ED1D0A89ED140A286989EDEB
S315000032700F8AC9F83800286E3D284FF0000038BF85
S31500003280012010B0BDEC0C8B01B0BDE8F08300BF8F
S3150000329011EA2D81999771BD000000E07EAEF03FE6
S315000032A0000000009F33E5BF4A014340BD37863525
S315000032B0000080C327A0093C3EE796BF38DC91BFDB
S315000032C08716AF42E5908F42D7A3F03F9AE4C23DFE
S315000032D00000C843B6A0453CA14C343CB9B751BC2C
S315000032E0CDB1A93493F9283A060DFABCB9B7513CC9
S315000032F0FF02D72C93F928BAC4359DB86F12833ACA
S315000033002C923A420000C8C37FE57B3DFF440E473E
S3150000331000409C4510B52DED028B9FED241A47F613
S3150000332024600824C0F20000011991ED002AB4EED1
S31500003330420AF1EE10FA03D5043C211D2FD0F3E723
S3150000334047F60C60C0F20000204490ED008A47F674
S315000033501860C0F20000204490ED001A30EE420AD8
S3150000336021EE000AB7EE001A30EE010A10EE100A3E
S3150000337000F08FFB41EC100B03F006F851EC100B3C
S3150000338000F023FC00EE100A47F63060C0F20000A1
S31500003390204490ED001A28EE000A30EE011AB7EE2E
S315000033A0000A81FE000ABDEC028B10BD0000000081
S315000033B070B52DED0A8B0546006E9FED7F1A47F618
S315000033C050620E46B0EE608A0021C0F2000200BFD5
S315000033D05358984203D904311429F9D121E0F1B1A7
S315000033E047F63C64C0F200040C44114451F8041C36
S315000033F014ED011A94ED002A5A1A03EE102A32EE41
S31500003400412AB8EE433A82EE032A401A03EE100A26
S31500003410B8EE433A22EE032A32EE011A01E0B7EE85
S31500003420001A95ED212A30EE423A21EE031A31EECA
S31500003430021A81EE000A85ED211A10EE100A00F03C
S3150000344028FB41EC100B02F09FFF51EC100B00F033
S31500003450BCFB9FED5A0A01EE100A81EE000A95EDBB
S31500003460231A9FED572A30EE410A20EE020A30EE6B
S31500003470010AB0EE001A85ED230A30EE010A10EEBD
S31500003480100A00F006FB41EC110B9FED490B03F00F
S3150000349017FA51EC100B00F098FB9FED4A9A00EEDC
S315000034A0100A80EE090A00F037FA95ED231A95ED19
S315000034B0242A21EE011A9FED453A31EE421A21EEF9
S315000034C0031A31EE022AB1EEC21AB7EE00BA9FED28
S315000034D03EAA3BEE400A95ED25CA20EE0A0A85ED86
S315000034E0220A85ED242AB4EE411AF1EE10FA50D6DE
S315000034F095ED250AB3EE042A80EE020AB4EE401AD0
S31500003500F1EE10FA08DD95ED241AB1EEC10AB4EE1B
S31500003510400AF1EE10FA43D68CEE000A95ED231A16
S3150000352021EE400A00F0F8F930EE0B0A8BEE000AA5
S3150000353030EE000A30EE0B0A10EE100A00F0A9FA7F
S3150000354041EC110B9FED1A0B03F0BAF951EC100B7D
S3150000355000F03BFB00EE100A80EE090A00F0DCF9F1
S315000035603BEE400A9FED1A1A20EE0A0AB4EE410A13
S31500003570286EF1EE10FA31FE000A3D284FF00000E9
S3150000358086ED150A38BF012086ED0F8ABDEC0A8B41
S3150000359070BDB0EE420A01F0D2FFB0EE401AA7E7C6
S315000035A0B0EE410A01F0CBFFB6E700BF00BF00BF97
S315000035B000000000000024400EA211383333333FD0
S315000035C09AE4C23DD1476DC400007A4468A191389F
S315000035D00000FA43B0B504460020C4F2C830606764
S315000035E00120002584F8980020466421C4E9195575
S315000035F0C4E91B5500F07DFC4AF22700C3F60940DA
S315000036004FF07E51C4E91E014CF28F20C3F6F540FF
S3150000361042F29B02C3F61A72C4E923500020C4E9A1
S315000036202151C4F89420B0BD2DE9F04F81B02DEDA5
S31500003630028BDDF830801C689B4691460F46824619
S31500003640022546466119384600F08CF80235A6EC8C
S31500003650010A0E2DF6D108F118051226A1193846D1
S3150000366000F080F80236A5EC010A202EF6D19FED77
S31500003670360AB9F1000F05D0DBF8041011B148463F
S3150000368000F070F888ED0D0A20889FED302A40BAC8
S3150000369001EE100ADAF86000B8EE411A013038BFC0
S315000036A0CAF86000B7F8030021EE021A9FED282A37
S315000036B040BA31EE028A01EE100A9FED262AB8EED4
S315000036C0411A81EE021AB879B6EE004A02EE100AE5
S315000036D03869B8EE423A9BED022ADBED032A82797D
S315000036E008F1080163EE041A5046F0EE480A434614
S315000036F0FFF74AFA98ED060A04465046F0EE480AE5
S315000037004146FFF755FEBCB998ED040A9FED121A23
S315000037109A20B4EE410AF1EE10FA0ED49FED0F1A7C
S31500003720B4EE410AF1EE10FA07DC9FED0D0AB4EE95
S31500003730408AF1EE10FA00DC204640B2BDEC028B66
S3150000374001B0BDE8F08F00BF002474494617BF3AA8
S31500003750A38B7E410AD7234400007A43F902155011
S31500003760863876420B8841891ABAB1EB124F24BFCC
S315000037709FED1A0A704702895BBA9A429CBF9FED79
S31500003780180A704740789FED171A00EE100AB8EE37
S31500003790400A581A20EE010A01EE100AB8EEC11AC4
S315000037A0D01A20EE010A01EE100AB8EE411A80EE98
S315000037B0011A9FED0B0AB4EE401AF1EE10FAC8BFDB
S315000037C070479FED062AB0EE410AB4EE421AF1EEBA
S315000037D010FA48BFB0EE420A704700BF0000C84268
S315000037E0A5D4685300007A44B0B584B047F6646C3B
S315000037F001AD0C46C0F2000C294602220323CDF887
S3150000380000C000F0E5F828462946032200F0B0F88B
S3150000381047F6886CC0F2000C284621460322012395
S31500003820CDF800C000F0D4F804B0B0BDB0B584B097
S3150000383047F6986C01AD0C46C0F2000C29460222F0
S315000038400323CDF800C000F0C3F82846294603221A
S3150000385000F0AEF847F6BC6CC0F2000C28462146D4
S3150000386003220123CDF800C000F0B2F804B0B0BDC9
S31500003870B0B588B047F6CC6C02AD0C46C0F2000C71
S31500003880294601220623CDF800C000F0A1F82846FB
S315000038902946062200F06CF847F6FC6CC0F2000CD4
S315000038A02846214606220123CDF800C000F090F8F4
S315000038B008B0B0BDF0B591B047F6187607AD0F4623
S315000038C0C0F2000629460A220A23009600F080F874
S315000038D0284629460A2200F04BF848F2D00402AEE8
S315000038E0C0F20004284631460A220523009400F05F
S315000038F06FF830463146052200F03AF848F2AC152A
S31500003900C0F200053046394605220123009500F035
S315000039105FF811B0F0BDD4D49FED121AB4EE410A8F
S31500003920F1EE10FAC4BF9FED0E0A70479FED0F1A15
S31500003930B4EE410AF1EE10FA44BF9FED0B0A704750
S3150000394080B510EE100A00F0A4F841EC100B01F05F
S31500003950FBFD51EC100B00F038F900EE100A80BDAB
S31500003960EDB19D7A0000A44222CB4F040000A4C210
S31500003970E2B170B52DED028B14460D460646B7EE44
S31500003980008A00BFB6EC010AFFF7C6FF88EE001AF0
S31500003990013C30EE412A30EE010A82EE000AA5EC27
S315000039A0010AEFD1BDEC028BBDE870407047D4D45C
S315000039B052B19FED060A00BFB0EC011A013A81FE32
S315000039C0001AA1EC011AF7D1704700BF00000000F1
S315000039D003B370B5DDF810C04FF0000EBCEC010A61
S315000039E001EB8E041546064684ED000A62B100BF5F
S315000039F0BCEC011AB6EC012A013D21EE021A31EEA9
S31500003A00000A84ED000AF3D10EF1010E9E45E5D1C0
S31500003A10BDE87040704710EE100A0246C0F3C75169
S31500003A206FF3DF5239B1FF291ED14FEAD20C52078C
S31500003A3040F2FF7324E0FAB1B2FA82F1C1F10B034E
S31500003A40B1F10B0C22FA03F358BF02FA0CF383F41C
S31500003A50801C40F28933A3EB010301F1150102FA40
S31500003A6001F258BF00220BE0C30D4FEAD20CDBB2C5
S31500003A70520703F5607303E000224FF0000C0023A9
S31500003A8000F0004040EA035040EA0C0040EC102BE6
S31500003A90704780B500EE100AFFF7BDFF51EC100B22
S31500003AA080BDB0B554EC102B2146C4F30A536FF316
S31500003AB01F51A3F28130FD2809D8500F40EAC101F9
S31500003AC022F06040B0F1805F16D9013118E052EA69
S31500003AD001000AD040F2FF70834206D1500FFF2248
S31500003AE040EAC10040F4800116E040F27E40834285
S31500003AF01AD9FF2200210FE004BF01F001000144A2
S31500003B000020B0EBD15F4FF6804018BF0021CFF602
S31500003B10FF7018BF0130C21804F0004040EAC250DE
S31500003B20084300EE100AB0BD40F2813E002B18BFDC
S31500003B3001F5801108BF4FF4607EAEEB030CBCF1BB
S31500003B40340F02DD00210022E6E79E4501D1002365
S31500003B5015E0CCF14005DCF12000C5F1200301FAA7
S31500003B6005FE22FA03F343EA0E0358BF02FA00F3F6
S31500003B7002FA05F058BF0020034318BF012322FABA
S31500003B800CF0CCF1200201FA02F21043BCF1200243
S31500003B9058BF21FA02F021FA0CF14FEA507258BFD1
S31500003BA0002120F0604042EAC1011843B0F1805F75
S31500003BB001D9013103E004BF01F001000144CA0D3F
S31500003BC01CBF81F400010122A6E780B541EC100B71
S31500003BD0FFF767FF10EE100A80BDD4D410B541EC94
S31500003BE0100B43EC112B00F03EF8002801D000200A
S31500003BF010BD012010BD00BF10B541EC100B43EC09
S31500003C00112B00F030F8002801DB002010BD012048
S31500003C1010BD00BF10B541EC100B43EC112B00F0AA
S31500003C2022F8002801DD002010BD012010BD00BFD4
S31500003C3010B541EC100B43EC112B00F045F80028B1
S31500003C4001DA002010BD012010BD00BF10B541EC07
S31500003C50100B43EC112B00F037F8002801DC002094
S31500003C6010BD012010BD70B55EEC102B00250120A3
S31500003C70C7F6F0752EF00041534275EB010322D3CF
S31500003C805CEC113B2CF000445E42A5411BD343EA99
S31500003C9002002143084309D01CEA0E0008D4D01ABA
S31500003CA07EEB0C0008DA4FF0FF3070BD002070BDCF
S31500003CB0981A7CEB0E00F6DB82EA03008EEA0C0112
S31500003CC0084318BF012070BD70B55EEC102B0025AF
S31500003CD04FF0FF30C7F6F0752EF00041534275EBFA
S31500003CE0010322D35CEC113B2CF000445E42A5415B
S31500003CF01BD343EA02002143084309D01CEA0E0005
S31500003D0008D4D01A7EEB0C0008DA4FF0FF3070BDF5
S31500003D10002070BD981A7CEB0E00F6DB82EA0300E9
S31500003D208EEA0C01084318BF012070BD2DE9F0474B
S31500003D30DDF820E0844681B1CAB153B3B1FA81F40B
S31500003D40B3FA83F52C1B202C47D3BEF1000F18BF06
S31500003D50CEE900C14FF0000CB6E09BB30021BEF1E6
S31500003D60000F18BFCEE900C14FF0000CADE0002BEC
S31500003D7078D0002877D05C1E234200F09880B1FAF4
S31500003D8081F4B3FA83F52C1B1F2CDED204F1010C4F
S31500003D902EE0541E224271D0B1FA81F7B2FA82F6B1
S31500003DA0F71B07F1210CBCF1200F1BD0BCF11F0F34
S31500003DB000F28E80CCF1200620FA0CF401FA06F50A
S31500003DC025431CE0B0FBF2FCBEF1000F1EBF0CFB4E
S31500003DD012000021CEE9000176E004F1010CBCF1ED
S31500003DE0200F05D14FF0000A4FF0200C0D4609E0D8
S31500003DF0C4F11F0620FA0CF501FA06F4254321FA50
S31500003E000CFAB0404FF000084FF000094FEA4A04A0
S31500003E1044EAD5776C0044EAD076B51A67EB030A14
S31500003E20F443F943A4184FEA400059415CBFBA462F
S31500003E30354640EAD87049EA4808CF0FBCF1010C74
S31500003E40B946E3D14FEAD871BEF1000F41EA40010D
S31500003E504FEA480020F0010018BFCEE9005A07EBF0
S31500003E60000C32E031E0B1FBF3FCBEF1000F1EBFE7
S31500003E700CFB13100021CEE9001025E0BEF1000F67
S31500003E801EBF00230440CEE90043012A1DD092FA4A
S31500003E90A2F24F00B2FA82F202F01F03D140D840DC
S31500003EA01F23934307FA03F343EA000C0DE0BEF128
S31500003EB0000F1CBF04EA0100CEE900C093FAA3F08C
S31500003EC0B0FA80F021FA00FC00216046BDE8F087D8
S31500003ED0CCF14006ACF120044FF0000A01FA06F7D7
S31500003EE020FA04F52F4300FA06F821FA04F53846BD
S31500003EF08AE70A46002100F009B810B500239A4265
S31500003F0003D0CC5CC4540133F9E710BD00239A42B8
S31500003F1008BF7047C1540133F9E7D4D4034613F8F8
S31500003F20012B002AFBD1181A0138704710B5054934
S31500003F300446054AFFF7E1FF044805492044FFF718
S31500003F40D8FF10BD4C01000000000000000000007A
S31500003F50000000000249401A02490860704700BF8D
S31500003F6008000000900D002081B070B589B00C46A5
S31500003F70104901914FF400310026009101190D936B
S31500003F80CDE90666002CCDE902661546049018BFF9
S31500003F90481E48BF002005900DAA6846294608928B
S31500003FA000F012F80CB104990E7009B0BDE870402B
S31500003FB001B07047B93F0000D1E904239A421EBF01
S31500003FC0531C0B61107070472DE9F04F95B0824677
S31500003FD080781492800740F18B84DAF80400002779
S31500003FE00C90149813900DA8821D0692421E05305F
S31500003FF00892099007910B910B9A114611F8010B43
S31500004000252803D0002800F0758404E05578961C16
S31500004010252D09D131460C9A0B915146904701370F
S315000040200028E9D500F05EBC00224FF0000800240D
S315000040304FF0000B1FFA8BF9B9F11F0F0DD8A5F140
S31500004040270009282DD8DFE800F09F0B0B0B050B86
S31500004050650B0B624BF0020B53E0B9F17F0F12D8E0
S31500004060A5F13000092823D8B9F1400F27BF08EB86
S31500004070880100EB410804EB840100EB410438BFE2
S315000040804BF0200B80E04C2D3ED0682D45D06A2D9C
S315000040903AD07A2D18BF742D76D06C2D40F053820D
S315000040A042E0202D2DD0232DDAD14BF0100B6BE002
S315000040B0242D47D07A2D67D02E2D3CD04C2D23D0E1
S315000040C0682D2AD06A2D1FD06C2D2DD0742D5BD073
S315000040D02A2D40F03882002A56D11398011D1391DB
S315000040E00068B9F13F0F4DD8B0F1FF3FDDBF4BF08F
S315000040F0280B444200224BF0200BC4BF002204468A
S3150000410042E04BF0040B3FE04BF4207B3CE04BF0ED
S31500004110010B39E04BF0080B36E00BF480704BEAEC
S31500004120400040F4807B2FE00BF080004BEA8000DB
S3150000413040F0800B28E0B9F13F0F00F2DB834BF033
S31500004140400B21E0BAB11498154642461390B9F1D6
S31500004150400F38BF2246079813A900F0D5FB1398E5
S315000041602A46B9F1400F00F104011391006834BFEB
S315000041700446804608E022464FF0000800244FF02F
S31500004180000B01E00022804616F8015B002D7FF44B
S3150000419051AF0A94002534462AB114981390079813
S315000041A013A900F0B1FB45F0200028EAE879B8F140
S315000041B0000FA0F1650148BF2BF0400B03290B94BB
S315000041C001D3612835D11399461B073121F0070128
S315000041D0612801F10802139291ED000B18D15FEAF4
S315000041E04B6058BF4FF0FF39F2B20DA8494600F0B8
S315000041F073FC00F101084BF4C05B4FF0010C5FFA51
S3150000420088F08145D8BFA0F101097020049041E0F3
S315000042105FEA4B6158BF4FF00609C1B266291ED04E
S31500004220652824D165204BF4805B09F10101002348
S3150000423024E0A5F16F01062957D808234FF0000E98
S31500004240DFE811F0E0010700DA01DA019F01DA0187
S3150000425097014BF0100B10234FF0780ED2E1662039
S315000042604BF4005B0122049011214B4608E05FEA03
S315000042700961494608BF0121002302380490002243
S31500004280C9B2112928BF11210DA800F0E1FC804612
S315000042904FF0020C0D9B13F1090F08DA13F1630FAF
S315000042A00FD213F57A7F09D84FF0040C0BE0092BD7
S315000042B009DD632B05D9B3F57A7FF5D24FF0030CF0
S315000042C001E04FF0020C9DF838101FFA8BF4C80776
S315000042D007D15FEA8B7206D462071DD40020012540
S315000042E01CE02D2019E02B2017E0692D18BF642D46
S315000042F040F02B811FFA8BF05FEA0B6100F13081F1
S3150000430013990A1D13920A68C10540F13081800590
S3150000431054BF12B252B22AE12020002511F00C0F30
S3150000432018D00423002D18BF03230A9A9A4226DDCB
S315000043305FEA0B7125D49C1AA846054600F0B9FB26
S31500004340002800F1CF8201370134F7D32846002434
S31500004350454617E01BF4405F039543D1B9F1010FC1
S3150000436098BF4FF001095FFA88F139B3099A0A44F8
S3150000437012F8012C302A21D1A8F10108F3E7002414
S3150000438000E0D41A2DB900F0A4FB002800F1AA829F
S3150000439001379DF83800DFF86C550007DFF8600537
S315000043A058BF05462878002800F08F82801B00F051
S315000043B08CFB013701350028F4D593E2E20648BFAD
S315000043C0494613F1040F0BDB4B4509DA8B424BF4DC
S315000043D0005BAEBF4FF00009DA4301EB020901E0D2
S315000043E0A1F101091FFA8BF15FEA8B42B6464FEA4B
S315000043F0015B0591029307D40521BBF1000F58BF5D
S31500004400032101EB0C0602E023EAE3714E1C09F1DD
S315000044100101B9F1000F059D08BFC5F30011039A0C
S315000044200A9C82F001028B183344E41A4FF0000311
S31500004430D8BF1C4615F0090FCDF804C011D184B1C0
S31500004440054688190A9910447646441A00F031FB4D
S31500004450002800F1478201370134F7D300242846AB
S3150000446000E07646039929B900F033FB002800F1F5
S3150000447039820137BBF1000F0CD500F022FB002872
S3150000448000F13082C6F1780000F01FFB002800F131
S31500004490298202370598000709D444B1274400F061
S315000044A010FB002800F11E82013CF8D1002405987B
S315000044B0800426D49DF8390051460C9A904700286E
S315000044C000F11082B9F1010FC0F2DA8000F0F5FABE
S315000044D0002800F1078209EB07005FFA88F500F172
S315000044E0020B0020814500F0A681471CAF423ABF6F
S315000044F00699085C302000F0ECFA00283846F1D521
S31500004500F0E10298C9F100095FFA88F820EAE0763E
S31500004510851B701C05D100F0D0FA002800F1E2815D
S3150000452001373020002D03D44545BCBF0998405DB6
S3150000453051464E454CDD0C9A904701350137013EF8
S315000045400028E6D5CEE10A9425E6632D54D11398CA
S315000045500126011D139100688DF834000DAD22E08F
S315000045608005139800F1A480011D13910268D317EA
S31500004570A6E04FF6EF700BEA000B0A234FF0750E1C
S3150000458040E01398011D13910568DC48002D08BF13
S3150000459005465FEA4B6058BF4FF0FF39284649464B
S315000045A000F040FB06465FEA0B7070D40A98B046EE
S315000045B0B04238BF8046B0426BD90C9A04462020E0
S315000045C051469047002800F18D81601E0137F2E7C1
S315000045D00C9A9047002800F18581781C0599C90638
S315000045E040F11481002E40F0118100F066FA002897
S315000045F000F17881023768E1782840F00981C5F139
S315000046008803AE464FF6F9700BEA00055FEA0B60C9
S315000046100AD41398011D13910068E9050AD5A90566
S3150000462054BF80B2C0B205E0A805139804D4011D9A
S3150000463013910068002107E0073020F007010A46C1
S31500004640496852F8080B139250EA010208BF2BF092
S31500004650160508D00DAE7446324600F0FFF9861BEB
S31500004660AC46254646E05FEA4B62F3D5B8F1010F4A
S31500004670F0DA4FF6E9700BEA000C0026754639E0D1
S315000046800598C00600F1D18007F1010BD3E0DDF8F3
S3150000469028803744A8EB0604002E00F0168115F892
S315000046A0010B51460C9A9047013E0028F4D519E1BA
S315000046B0073020F007000146436851F8082B139194
S315000046C05846002B48BF40F4806020F0100C82EA68
S315000046D0E37083EAE371B0EBE37061EBE3711A43D5
S315000046E000F08A800DAC0A236646224600F0B6F931
S315000046F0B446061B5FEA4C6002D4614630460BE0C6
S315000047004FF6FE700CEA000130464E4504DA484684
S31500004710002D08BF2CF011011FFA81FBC90606D433
S3150000472040F2064111EA0B0118BF012103E0022104
S31500004730002D08BF01210C185FEA0B701CD45FEA3C
S31500004740CB7001D10A9907E00A99B1468C42BEBFE7
S315000047507018A0EB04090C46A046A142C8BF8846C3
S315000047600A98844207DA00F0A4F9002800F1BA801A
S3150000477001340137F4E744465FEACB6014D440F2D3
S3150000478006401BEA000F1FD05FEA8B704FF02B002C
S3150000479058BF20205FEA4B5148BF2D2000F099F901
S315000047A0002800F19F800EE000F08BF9002800F150
S315000047B0998045B10C9A284651469047002800F149
S315000047C09180023700E001370A983744041BB1454F
S315000047D00FDD00F076F90137A9F101090028F6D5B9
S315000047E080E0089851460C9A805D9047013E00286B
S315000047F078D4002E69D0F4E75FEA4B627FF572AF9A
S31500004800B8F1010FBFF66EAF002673E707465CE00E
S315000048100C9A252051469047002863D40C9A2846C6
S31500004820514690470237FFF7FBBB00F046F90028D8
S3150000483058D407F1020B049851460C9A801BC0B25B
S31500004840904700284ED4029E2B205146002E48BF8A
S315000048502D200C9A9047002E00D57642002841D490
S315000048600198042812D34FF47A700C9AB6FBF0F52F
S31500004870514605F13000C0B29047002832D44FF4BB
S315000048807A7005FB10610BF1030504E00BF10205DC
S315000048903146032823D1642000F002F9002821D4F0
S315000048A06420013506FB10710A2000F0F9F8002893
S315000048B018D406EB86000135A7EB400101F1300064
S315000048C000F003F900280DD46F1C012CFFF694AB01
S315000048D000F0EFF80137013C0028F6D502E0022887
S315000048E0E2D2EBE79AF8020040F004008AF80200F0
S315000048F04FF0FF37384615B0BDE8F08F7D780000E1
S31500004900AD770000797800002DE9F04389465249D9
S315000049104FF001084FF0010C0546944580F299804E
S315000049202B4613F8014B252C03D01D46002CF7D13E
S315000049308FE0AF1C6B783D46252BF1D000264FF05B
S31500004940000E00251F2E08D8A3F12004102C06D82F
S3150000495008FA04F40C4202D042E07F2E0AD8A3F1F2
S315000049603004092C13D805EB850346F0200604EB2A
S31500004970430535E04C2B23D0682B24D06A2B1FD05F
S315000049807A2B18BF742B2BD06C2B34D122E07A2BC8
S3150000499026D02A2B18BF2E2B01D1002520E04C2B28
S315000049A00ED0682B0FD06A2B0AD06C2B12D0742B2A
S315000049B016D0242B1FD1BEF1000F16D1AE46ECE760
S315000049C046F420760CE006F4807346EA430343F48B
S315000049D0807605E006F0800346EA830343F080060E
S315000049E017F8013B002BADD104E06545D5D1632313
S315000049F0E64600E000233D46BEF1000F29D0E6451D
S31500004A007FF48BAF43F02004A4F16505032D01D399
S31500004A10612C06D1D9F80030073323F00703083399
S31500004A2012E0DCB2732C0CD0642B18BF692B06D1B4
S31500004A30330606D5D9F80030B405EDD403E0632B70
S31500004A40F6D1D9F800300433C9F800300CF1010C66
S31500004A5062E7BDE8F08300BF892801002DE9F04137
S31500004A6003F01F06984614460F4605462846394663
S31500004A703246002300F0E2F800FB1652A2EB0803D0
S31500004A80092A88BF03F13702303204F8012BAA1B2A
S31500004A90054677F100020F46E8D22046BDE8F081D0
S31500004AA00C9AB1FBF0F60F4606F130005146C0B243
S31500004AB010470C9A2020514610470C9A2E2051463A
S31500004AC010470C9A3020514610470C9AC0B25146F6
S31500004AD010470C9A514610472DE9FE4F56EC107BB5
S31500004AE00C460546F00F90462871C6F30A516FF33F
S31500004AF01F5657EA060208BF00290ED089B140F2B8
S31500004B00FF7399420FD10821002A08BF042100240F
S31500004B10084428712046BDE8FE8F002000270026A5
S31500004B2005E02E4803E0A1F2FF3006F58016002CC2
S31500004B30286003D40C2C03D90D2436E0002434E07D
S31500004B403320A0EB8409022000214A464FF0000AD8
S31500004B5000F046F8424202926AEB0102B0F1010B04
S31500004B6061F10000019230400090012000214A4688
S31500004B7000F036F8814607EA0B00B9EB00008A46DA
S31500004B80009871EB000008D3A000C0F1340238464B
S31500004B90314600F036F8C00703D017EB090746EB9D
S31500004BA00A0602980740019806401220411FB1D418
S31500004BB017F00F0201D1A1420ADCA2EB0803092A71
S31500004BC088BF03F1270230322A54A142C8BF0C46DF
S31500004BD0390941EA067736090138E7E702FCFFFFA3
S31500004BE0930641BFA2F1200100FA01F100207047AF
S31500004BF032B1C2F12003914020FA03F319439040E9
S31500004C007047930641BFA2F1200021FA00F000216F
S31500004C10704732B1C2F12003D04001FA03F31843C2
S31500004C20D140704710B54218034629B11C7814B11B
S31500004C3001390133F9E71A46101A10BD40B584B0A0
S31500004C4002AE0096FFF772F8029A039B04B040BDCD
S31500004C502DE9F04F9DB0884651EC106B93460D46FA
S31500004C60CF0F6FF31F55C1F30A5156EA050408BF6B
S31500004C7000290BD040F2FF7291420FD10821002C7F
S31500004C8008BF0421394401710024FCE130210124CC
S31500004C90417100210160B91C0171F4E1002CCDE9DC
S31500004CA00970069318BF01240022A1F23547022994
S31500004CB038BF0122002918BF05F580154FEA850384
S31500004CC043EA967044EA020913904FEA860004BF4D
S31500004CD04FF6CC37CFF6FF77129006F00100002F83
S31500004CE00490CDF81480CDF82CB0CDF83C9041D48A
S31500004CF0384600F0D1FACA468146032F88BFA9F18B
S31500004D000109484600F0D4FA14A90446484600F0C2
S31500004D1057FB18A81AA9CDF808A0CDE90010A9EBF1
S31500004D200700204414AA00F17C033046294600F00F
S31500004D30C7F90546B9F1150F109100F29380129E3E
S31500004D40139C3046214600F0ADF9820842EA817193
S31500004D5020F0030008444042F04261D1304621462B
S31500004D6000F0AEFA00210F9148454FF0000028BF31
S31500004D70012039E0C7F1000A504600F093FA0446D4
S31500004D80781C18BF013CAAEB040A504600F090FAC2
S31500004D900DF1500883465046414600F0ABFA18A87C
S31500004DA01AA94246CDF80890CDE90010A4EB0B00F5
S31500004DB000F17D033046294600F082F904EB07092D
S31500004DC00546012C109111D8DDF81480DDF82CB0C1
S31500004DD0049840B1DDE91A0101381A9061F100002A
S31500004DE01B9000200F90012011903EE0DDF814800A
S31500004DF03E2CDDF82CB035D84FF0FF304FF0FF31A8
S31500004E002246FFF7EDFE139A22EA0101129A22EAE0
S31500004E1000000843B0FA80F040091190002023E01A
S31500004E20049870B90F98C043801964F1000100F02E
S31500004E3047FA0021119148454FF0000028BF012094
S31500004E4012E046F00200214600F03AFADDE91A12B5
S31500004E504B1E62F10004484538BF0B461A9338BF13
S31500004E6014461B94002011900F904046BBF1000F92
S31500004E700ED01099284600F0EFF9069A09EB0201C8
S31500004E800844B0EBD27FB8BFD00F8045B8BF4046CC
S31500004E90CDF820900DF160091B9CAB4699E84003C4
S31500004EA000250C900020CDE9120048462146CDF899
S31500004EB0389000F0EEF881468A4630464146CDF8F5
S31500004EC0348000F0E6F80746B0EB0900884671EB3F
S31500004ED00A000ED31099584600F0BEF90C99884284
S31500004EE021DD08462946012518B9109850EA0B001D
S31500004EF01DD01099584600F0CCF8109154461299DE
S31500004F00119A00F0BCF907EB87010F9AC6EB410135
S31500004F103E46B1FA81F1834649090A4013990F9238
S31500004F2001311391C1E7DDF840805F4603E00027B9
S31500004F304FF000080D46DDF83C90DDF828A00795F7
S31500004F405FEAC97024D00D9DBB463046294600F065
S31500004F50A0F8074600EB800040422A460D46714203
S31500004F60B1EB400F16D10E98214600F092F80E9044
S31500004F700C465846414600F08CF888461299119A1C
S31500004F803E4600F07CF91399834601311391DCE724
S31500004F90454602E045465F460D920898139901EB97
S31500004FA000081298C0B2411F18BF0121DDF82CB0CD
S31500004FB0079AD2070CD10D9B87EA06026B401A436B
S31500004FC006D1049A82F0010202EA0902012A5ED1A0
S31500004FD0119A82F00102114300223943042888BF46
S31500004FE0012201EA02043F1945F100093846494603
S31500004FF000F032F906460CB30C9886421FDDBBF171
S31500005000000F0AD00698404481190129D8BF012112
S3150000501005988842B8BF0146084686420FDD044619
S31500005020781D49F100010A220023FFF707FE013E21
S3150000503008F1010807462046894600E00C9886429A
S31500005040B8BF304604B20025261DA54212DA3846FE
S3150000505049460A220023FFF7F1FD894600EB80014D
S315000050600135A7EB4101074641F030010AF8061069
S31500005070013EEAE709988AF804000FFA88F020440E
S315000050800138CAF8000020461DB0BDE8F08F0124A3
S31500005090A9E780B500F006F8C00840EA4170C908E3
S315000050A080BDD4D4F8B502AA0092044A4FF0CC339E
S315000050B000F011FADDE9020104B080BDCDCCCCCC04
S315000050C02DE9F04F8BB004931646D2E9002308ACC5
S315000050D00094490041EAD07445002846214600F074
S315000050E0FAF9D6E902238146DDE9087806A88B4657
S315000050F000902846214600F0EEF910EB070A48EB2F
S315000051000108DDE90601DDE90823471C41F1000538
S31500005110BAEB020278EB030228BF0D46079528BFBB
S3150000512007460499D6E902404139D6E900CE7A1CF1
S3150000513045F1000314EB0A040591009140EB0801C8
S3150000514019EB0C00CDF80C905BEB0E00069754F1B2
S31500005150000041F10001B0EB0A04D94671EB0804E6
S3150000516024BF2B463A4600F0D2F9149AC2E9000150
S31500005170DDE915B008B3D6E90201D6E900C3DDE9D9
S3150000518005640096BAEB0006039A68EB0107701EE9
S3150000519067F10001B2EB0C02079D79EB030224BF15
S315000051A030463946621E65F10003BAEB000678EB1D
S315000051B0010624BF22462B4640E0049C0025D6E982
S315000051C000E0CC46403CDDE9062302904FEA4C0C59
S315000051D0D6E902014FEA4A0600944FEA480446EA35
S315000051E0D97644EADA74B6EB0A0774EB080738BFD7
S315000051F0012545EA42055B0043EAD2776A1E04951B
S3150000520067F10003039DB6EB000964EB010BB9F1EE
S3150000521001006BF10001DEEB450E4CEAD57C029DE8
S315000052207CEB050528BF5946DDF854B028BF484633
S31500005230351A8C41049C24BF22463B4600F067F990
S31500005240CBE9000105AB41460DCB0090504600F07E
S315000052505EF90BB0BDE8F08F70B500230A24012279
S315000052600A25461B71EB030607D3A5FB045603EB81
S315000052708303013206EB4303F3E7104670BDC9B260
S31500005280B1FA81F149090A4000EB80011192ABEBBA
S31500005290410112917047D4D401494843800C7047AC
S315000052A04134010001494843000D7047FB2E0B00B5
S315000052B002494843012101EBD04070474F93120049
S315000052C0F0B50A4B02460A4D4FF0FF304FF0CC3492
S315000052D0A2FB0367013002FB047201FB0321721B70
S315000052E071F133323246F3D3F0BD00BFCDCCCCCC16
S315000052F0343333332DE9F04F87B08B461A21B0FB98
S31500005300F1F2054602FB01F62A4800EB0210B5420F
S3150000531002D100F0C9F849E004A9274A0091A91B67
S31500005320C36852F8317002EBC101D0E901924C68B2
S315000053300168019100F0ACF8824602A8019A8846FD
S315000053400090384621464B4600F0C5F8019181464B
S31500005350DDE90212002011EB0A0758EB020840F1C2
S315000053600000012801D100F097F82846FFF7A0FFBA
S3150000537004463046FFF79CFF0199241A48463A46F0
S315000053804346009400F0C3F81E226FF0030302EABE
S31500005390450203EA9503094DEB5800F08DF800F03D
S315000053A093F8009400F0B3F8CBE9020107B0BDE82A
S315000053B0F08F00BFC881000098820000688300005B
S315000053C02DE9F04F87B08B46054619301A21B0FB00
S315000053D0F1F22C4802FB01F600EB0210AE4202D1BC
S315000053E000F062F84BE004A9274A0091711BD0E94E
S315000053F000A852F8317002EBC101D0E902234C68D3
S3150000540000F046F8019002A8BAF1010268F1000323
S315000054108946009000F03CF88A46DDE901310446F1
S315000054200020039ACF1852EB090840F1000001282A
S3150000543001D100F031F83046FFF73AFF064628461C
S31500005440FFF736FF361A204651463A46434600963F
S3150000545000F05DF86FF003030C4C03EA95031E227F
S3150000546002EA4502E35800F027F8013041F1000155
S3150000547000F02AF8009600F04AF8CBE9020107B0DE
S31500005480BDE8F08FC083000098820000B084000061
S315000054903846214600F01FB8DDE9040101300490CA
S315000054A041F100000590704790E80E00C0688BE857
S315000054B00E00CBF80C00704723FA02F202F003024A
S315000054C0801841F100017047DDE90423CBE90001B2
S315000054D0384641467047F0B5A3FB0145DDF814C0D8
S315000054E0A2FB0116A2FB00277F18744145F10005B7
S315000054F039462646E3FB0016A3FB0003C01954EB0E
S31500005500030045F10000CCE900601046F0BD2DE92E
